:020000040800F2
:1000000000000220150E0008590E0008590E0008C5
:10001000590E0008590E0008590E00080000000093
:10002000000000000000000000000000590E000861
:10003000590E000800000000590E0008590E000873
:10004000590E0008590E0008590E0008590E0008F4
:10005000590E0008590E0008590E0008590E0008E4
:10006000590E0008590E0008590E0008590E0008D4
:10007000590E0008590E0008590E0008590E0008C4
:10008000590E0008590E0008590E0008590E0008B4
:10009000590E0008590E0008590E0008590E0008A4
:1000A000590E0008590E0008590E0008590E000894
:1000B000590E0008590E0008590E0008590E000884
:1000C000590E0008590E0008590E0008590E000874
:1000D000590E0008590E0008590E0008590E000864
:1000E000590E0008590E0008590E0008590E000854
:1000F000590E0008590E0008590E0008590E000844
:10010000590E0008590E0008590E0008590E000833
:10011000590E0008590E0008590E0008590E000823
:10012000590E0008590E0008590E0008590E000813
:10013000590E0008590E0008590E0008590E000803
:10014000590E0008590E0008590E0008590E0008F3
:10015000590E0008590E0008590E0008590E0008E3
:10016000590E0008590E0008590E0008590E0008D3
:10017000590E0008590E0008590E0008590E0008C3
:08018000590E0008590E000899
:100188004FF0E0231A69D203FCD50138FAD1704741
:1001980010B5044600F020FD00210846164A00F07C
:1001A80027FD164A0121002000F022FD601EC0B282
:1001B800082896BF124B134A53F82020022100202A
:1001C80000F016FD104A0421002000F011FD0F4A2E
:1001D8000521002000F00CFD0D4A0721002000F049
:1001E80007FD0C4B07211A68042000F037FDBDE815
:1001F800104000F051BD00BF5611000867110008FB
:100208008412000848110008701100087F110008C6
:1002180091110008080000202DE9F04F4FF0E0226E
:100228000024624B8FB014611B684FF47A71B3FBE2
:10023800F1F3013B536105239461136100F030FA37
:100248004FF49670FFF79CFF00F06AFD8046B8B146
:1002580000F0C2FC564A2146204600F0C9FC554A27
:100268000221204600F0C4FC534A0421204600F035
:10027800BFFC524A0621204600F0BAFC00F00CFDF3
:100288004FF47A71084600F08BFA50B14C4A10705E
:100298004C4A136801331360B8F1000F01D0FFF71F
:1002A80077FFC820FFF76CFFDFF818A1002600F0E1
:1002B80066FB0136F6B2044670B1414B1C70DAF8A1
:1002C80000300133CAF80030B8F1000F00F0468161
:1002D8002046FFF75DFF41E164222021304600F00F
:1002E80091FA04460028E8D164250A20FFF748FF60
:1002F80001A800F0A8FA0446A0B9334ABDF80430B2
:1003080013809DF80430B34249D19DF805309A0610
:1003180049D403F00703062B41D104A9304600F065
:10032800BDFA0446264B1C70002CC8D104AF0FCF71
:10033800264D0FC50FCF0FC597E8030085E80300CA
:10034800234A136801331360224A10685168127AED
:1003580001AB03C3DDE90801A1421A7002DA404289
:1003680061EB4101DDE90A57002F35DA6D4267EB91
:1003780047072A463B4600F06DFD0A2871F1000147
:1003880083462CD24FF06409A2FB090109FB031133
:100398002A463B4600F05EFD09FB0B0921E0013DC2
:1003A800A3D10924BEE70824BCE700BF0000002051
:1003B80056110008A0110008B3110008C811000860
:1003C8003A0000200800002038000020100000201B
:1003D8000C0000200712000855EA0703C9D140F2B3
:1003E800E739B8F1000F00F0B9809DF8363013F006
:1003F800010F0CBF2D22422213F0020F8DF80620A8
:100408000CBF2D22442213F0040F8DF807200CBFD7
:100418002D22562213F0080F8DF808200CBF2D222C
:10042800432213F0100F8DF809200CBF2D224F2204
:1004380013F0200F03F03F038DF80A200CBF2D2284
:100448005022062B8DF80B200CD10C9B53B19DF834
:1004580035209DF834309A4204D9B9F1140F8CBF75
:100468000024012400F0B8FB002108463E4A00F0B1
:10047800BFFB3E4A0121002000F0BAFB3C4A0221A2
:10048800002000F0B5FB022108464FF47A7200F014
:10049800E5FB384A0221062000F0AAFB9DF810204F
:1004A80002210D2000F0DAFB334A0321002000F07E
:1004B8009FFBDDE908230321022000F0D2FB2F4A2D
:1004C8000421002000F094FBDDE90A230421022026
:1004D80000F0C7FB2A4A0521002000F089FB0C9A8E
:1004E8000521022000F0BAFB264A0621002000F070
:1004F8007FFB9DF834200621042000F0AFFB224A40
:100508000621072000F074FB9DF8352006210820FD
:1005180000F0A4FB1D4A06210C2000F069FB4A46A6
:1005280006210E2000F09AFB194A0621112000F03E
:100538005FFB01AA0721002000F05AFB154A07219A
:10054800092000F055FB144B144A0721002C08BF62
:100558001A460C2000F04CFB00F09EFB4FF4FA709A
:10056800FFF70EFEA3E600BF56110008DB110008D6
:10057800E8110008EB110008F3110008F011000859
:10058800F6110008F91100080E120008FE11000803
:1005980001120008031200089B11000896110008B8
:1005A80070B502460144002012F8014B08254300AB
:1005B80080EA0406D8B216F0800F80F0070318BF4F
:1005C80018466400013DE4B2F1D18A42ECD170BD15
:1005D80082B000230193019B7F2B01D902B07047A1
:1005E800019B0133F6E700001B4BF7B54FF480146D
:1005F8009C611A4C0023A0B1C75CA1B1CE18184D5C
:10060800D4F808C01CF0020F10D0154D2773A76846
:10061800FF071AD50133257B35709A42EBD10020AC
:1006280007E00746E9E70DF10706E8E7013DE7D1EE
:1006380004200B4B09498A68120609D4064B10227C
:100648009A61FFF7C5FF03B0F0BD013DDFD1EFE7C9
:10065800013BF0D10420F1E70000024000300140E6
:10066800A086010037B5A5238DF805000C4601A822
:10067800022115468DF80430FFF792FF03228DF80A
:100688000600002101A8FFF7AFFF30B92A4621462E
:1006980003B0BDE83040FFF7A7BF042003B030BD6A
:1006A800244BD3F8302842F0010282B0C3F8302836
:1006B800D3F8442842F48052C3F84428D3F83028A9
:1006C8000192D3F844380193019B1B4B1A6822F41A
:1006D8007F421A601A6842F429421A605A6822F066
:1006E800F0025A609A6842F47F429A60DA6822F40B
:1006F8007F42DA60DA6842F40052DA601A6AC2F3BA
:1007080013021A621A6A42F0AA4242F4A0021A625A
:1007180010229A61A3F5504300221A605A604FF4E0
:1007280047721A601A6842F040021A6002B0FFF776
:100738004FBF00BF00300240000002400000000030
:1007480010B50B4904460B484FF0000CE4FB010CB4
:1007580005A3D3E90023614600F07CFB064BE4FBCC
:10076800030110BDAFF3008040597307000000007B
:1007780040FB0F06A0ACB903175C220040F6B73364
:1007880098429FBFC0EB004000F2DC5040F6B833FF
:10079800B0FBF3F094BF80B24FF6FF7070470000D3
:1007A8001FB5174A431E93420C4624D240F6B8336D
:1007B800994222D8FFF7C4FF02462046FFF7DEFF22
:1007C80040F2A51340BA12BAADF804308DF80710FC
:1007D8000B0AADF80C000A2101A802928DF8063028
:1007E800FFF7DEFE0B228DF80E00002101A8FFF7AF
:1007F800FBFE04B010BD0120FBE70220F9E700BFB3
:100808000087930307B5E1B140F2A523ADF80030A6
:100818000B0A8DF802008DF803308DF80410130AC6
:10082800072168468DF806208DF80530FFF7B8FED9
:1008380008228DF8070000216846FFF7D5FE03B0AF
:1008480000BD0320FBE737B5054608B30522694616
:100858000320FFF707FF0446E0B99DF80030A52BF9
:1008680003D00524204603B030BD9DF80130832B0A
:10087800F7D104216846FFF793FE9DF804308342C0
:100888000AD19DF802302B709DF803306B70E9E7B0
:100898000324E7E70424E5E70624E3E7F0B5064682
:1008A8008BB00D46002962D0212201A90420FFF750
:1008B800D9FE044600285CD19DF80430A52B03D14D
:1008C8009DF80530842B03D0052420460BB0F0BDDD
:1008D800202101A8FFF764FE9DF8243083424AD105
:1008E8009DF80600B04248D10DF106062146224681
:1008F800234616F8017F01311B02062943EA1263D9
:1009080047EA0222F5D1C5E90223002228701146E0
:1009180003A8134610F8016F01321B02082A43EAA4
:10092800116346EA0121F5D1C5E90413002105AA9E
:1009380008460B4612F8016F01311B02082943EAE9
:10094800106346EA0020F5D1C5E90603DDF81D303D
:100958001BBA2B629DF8213085F824309DF822308F
:1009680085F825309DF8233085F82630ADE7032437
:10097800ABE70424A9E70624A7E70724A5E707B5FA
:1009880040F2A553022101A8ADF80430FFF708FE94
:1009980003228DF80600002101A8FFF725FE03B009
:1009A80000BD00000A4B4FF40042C3F800240022A7
:1009B800C3F800241022C3F804245022C3F81C24CE
:1009C8001122C3F820240122C3F80024704700BF75
:1009D800005000400B4A0C4BD3F81414014201D0CC
:1009E80001207047D3F81414490507D5D3F8142407
:1009F80022F48062C3F8142400207047013AEBD136
:100A0800FAE700BFA08601000050004010B5044678
:100A18008020FFF7DFFF10B1014BC3F8104410BD71
:100A28000050004037B5444B444AD3F8181489079E
:100A380051D5013AF9D1D3F8001421F00101C3F8D6
:100A480000143F4BD3F8001421F47041C3F800148C
:100A5800D3F8001441F4A041C3F80014D3F80414E7
:100A680041F0C001C3F80414C021C3F818140920C8
:100A78004FF480054024C3F81854009200992729A0
:100A880043D9C3F8184400920099272941D901385D
:100A9800F1D12B4B4FF40002C3F818244022C3F8BD
:100AA80018240090009A272A37D98022C3F81824DE
:100AB800D3F8002422F47042C3F80024D3F80024A9
:100AC80042F42042C3F80024FFF76CFF1A4BD3F816
:100AD800183498072DD4184CD4F8003443F4807394
:100AE800C4F800340120FFF775FF60B17823C4F81B
:100AF80010340220FFF76EFF98B9D4F8003443F49D
:100B08000073C4F8003403B030BD0099013100917E
:100B1800B4E7009901310091B6E7009A01320092DA
:100B2800C0E7D4F814340193D4F818340193019B26
:100B3800E9E70020E7E700BF00500040A086010079
:100B48000000024010B50446FFF76CFF38B90B4AA5
:100B5800D2F8003443F40073C2F8003410BD00200A
:100B6800FFF754FF0028F2D02046FFF74FFF002878
:100B7800EDD00420FFF72EFFE9E700BF005000404A
:100B88001428F0B51CD807291AD8104D00240626B9
:100B980006FB04F3EF5C974213D101332B44062282
:100BA80050430B4A00EBC1108418591E043311F846
:100BB800015F04F8015B9942F9D1024400235371A3
:100BC800F0BD01342D2CE3D1024BE8E7BF12000839
:100BD8003B0000202C1300080023044A1946013367
:100BE800B3F5806F02F8011BF9D170473B00002074
:100BF80070B50D462AB1541E14F8012F0AB11428F5
:100C080000D970BD461C2946FFF7BAFFF0B2F3E7DA
:100C18002DE9F04387B01C460023804689461646D6
:100C28008DF8143014256F4621460A2200233046D9
:100C380000F010F9013D0A2E02F1300274F10004AF
:100C4800EA5503D306460C46002DEDD17A194946DC
:100C58004046FFF7CDFF07B0BDE8F0830023FFF75C
:100C6800D7BF2DE9F041461C1D1E0F46F6B21446AB
:100C78000DDA2D22FFF784FF644265EB4505224615
:100C88002B4639463046BDE8F041FFF7C1BF2B225D
:100C9800FFF776FFF3E70000F8B51F4D002464F076
:100CA8004F00C0B2FFF74EFF88B10020FFF74AFFA0
:100CB80068B11020FFF746FF48B1FFF7B3FE38B917
:100CC800164AD2F8003443F40073C2F80034F8BD71
:100CD8004020FFF79BFE0028F2D02F4600263878E8
:100CE800FFF794FE0028EBD00136802E07F10107AC
:100CF800F5D10420FFF76EFE084AD2F8003443F419
:100D08000073C2F800340028E1D00134082C05F142
:100D18008005DCD0C3E700BF3B0000200050004046
:100D28002D4B37B5D3F830282C4D42F00202C3F8CA
:100D38003028D3F8402842F40012C3F84028D3F8EA
:100D480030280192D3F840380193019B244BD3F803
:100D5800002422F47042C3F80024D3F8002442F49B
:100D68002042C3F80024D3F8042442F0C002C3F898
:100D78000424D3F8082442F47042C3F80824D3F8B2
:100D88000C2422F47042C3F80C24D3F80C2442F447
:100D9800A042C3F80C24D3F8202422F07F42C3F8E1
:100DA8002024D3F8202442F08842C3F82024FFF7F7
:100DB800F9FD00242878FFF7C5FE58B10134172C37
:100DC80005F10105F6D1FFF707FF03B0BDE8304094
:100DD800FFF762BF03B030BD00300240A812000820
:100DE800000002404FF0E023D3F8882D42F470024F
:100DF800C3F8882D4FF00062C3F8082D014B024A52
:100E08001A607047000000200024F4000B480C49C9
:100E18000C4A914204D250F8043B41F8043BF8E7ED
:100E280009480A490022884202D240F8042BFAE70E
:100E3800FFF7D8FFFFF7F0F9FEE70000D813000826
:100E48000000002004000020080000203C040020CE
:100E5800FEE7000053B94AB9002908BF00281CBFA3
:100E68004FF0FF314FF0FF3000F068B9ADF1080CDA
:100E78006DE904CE00F006F8DDF804E0DDE90223B0
:100E880004B070472DE9F047089F154604468E4682
:100E98001E46002B40F0D2808A424DD9B2FA82FC1D
:100EA800BCF1000F02FA0CF3CCF1200E18BF1D465E
:100EB80020FA0EFE01FA0CF34EEA030E00FA0CF3C8
:100EC8000CBF8E461C464FEA1548A8B2BEFBF8F187
:100ED800220C08FB11EE01FB00F342EA0E4293429A
:100EE80006D9AA1801F1FF3E01D293421ED87146D5
:100EF800D21AA4B2B2FBF8F308FB1322584344EA0F
:100F08000244A04206D92C1903F1FF3201D2A042B3
:100F18000FD81346241A43EA014027B124FA0CF4E7
:100F280000233C607B603146BDE8F08702392A44E3
:100F3800DEE7023B2C44EDE7002A71D0B2FA82F3D7
:100F4800DBB31E46C6F1200302FA06F521FA03F2C6
:100F5800B14020FA03F30B434FEA154E00FA06F4AA
:100F68001FFA85FCB2FBFEF00EFB10211A0C00FBE9
:100F78000CF842EA0142904506D9AA1800F1FF315F
:100F880001D290454ED80846A2EB08029BB2B2FBAC
:100F9800FEF10EFB112201FB0CFC43EA02439C45C7
:100FA80006D9EB1801F1FF3201D29C453DD8114614
:100FB800A3EB0C0341EA004101E08B1A01214FEA3F
:100FC800154E1FFA85FCB3FBFEF0220C0EFB103306
:100FD80000FB0CF842EA0342904506D9AA1800F132
:100FE800FF3301D2904523D81846A2EB0802A4B2D9
:100FF800B2FBFEF30EFB132203FB0CFC44EA024493
:10100800A44506D92C1903F1FF3201D2A44512D800
:101018001346A4EB0C0443EA0040B4460E467CE7B2
:101028001F268FE702382A44AEE702392B44BFE770
:1010380002382A44D9E7023B2C44EAE78B4205D917
:101048000FB1C7E90001002630466CE7B3FA83FC0C
:10105800BCF1000F0FD18B4201D3824209D8841A08
:1010680061EB030301209E460FB1C7E9004E00263D
:1010780059E76046F8E7CCF1200E03FA0CF322FAA0
:101088000EF521FA0EF41D4301FA0CF320FA0EF1C5
:1010980019434FEA154900FA0CF61FFA85F8B4FB14
:1010A800F9F009FB104A0C0C00FB08F344EA0A4467
:1010B800A34202FA0CF206D92C1900F1FF3A01D228
:1010C800A34235D85046E41A89B2B4FBF9F309FBB8
:1010D800134403FB08F841EA0441884506D9691816
:1010E80003F1FF3401D2884525D8234643EA00405E
:1010F800A1EB0801A0FB029841454C46434602D3A8
:1011080006D14E4504D2B9EB020468EB0503013859
:10111800002FACD0321B61EB030101FA0EFE22FA5C
:101128000CF34EEA030321FA0CF1C7E900319EE7FC
:1011380002382C44C7E7023B2944D7E7704700BF71
:10114800554E4B4E4F574E204552524F5200465027
:101158004741205258204C4F4F5020483D310052B3
:10116800583A4552524F5200434845434B2050414C
:1011780036204D49534F00434845434B20435320A5
:1011880053434B204D4F5349004552523A0050416A
:101198005353005741524E005354415254494E47FD
:1011A80020314B485A20544553540053504931205C
:1011B80050413420504135205041362050413700AD
:1011C8005741495420464F522046504741204441F8
:1011D80054410052583A4F4B204352433A4F4B0028
:1011E800463A00485A205345513A00493A004E3A87
:1011F800004144433A004C3A00250048313A005334
:101208003A2D2D2D2D2D2D00424144204652455179
:1012180055454E43590042414420414D504C495494
:101228005544450042414420415247554D454E548E
:10123800005350492054494D454F5554004652419A
:101248004D452048454144455200435243204552AC
:10125800524F5200534551204552524F520046506A
:1012680047412052454A454354004D454153555244
:10127800452054494D454F555400000010120008B0
:101288001E1200082C120008391200084512000826
:10129800521200085C120008661200087212000858
:1012A800AED580A83FD30040A1C8DA1281CFD9F1CA
:1012B800DB30A4A68D14AF200000000000256313C6
:1012C8000864632B08083E08082D08080808082E3B
:1012D80000606000002F2010080402303E5149458C
:1012E8003E3100427F40003242615149463321413C
:1012F800454B31341814127F10352745454539368A
:101308003C4A49493037017109050338364949498A
:101318003639064949291E3A00363600003D14146C
:101328001414143F0201510906417E1111117E4225
:101338007F49494936433E41414122447F41412248
:101348001C457F49494941467F09090901473E41F2
:1013580049497A487F0808087F4900417F41004A87
:101368002040413F014B7F081422414C7F404040C0
:10137800404D7F020C027F4E7F0408107F4F3E4194
:1013880041413E507F09090906513E4151215E52B3
:101398007F091929465346494949315401017F01BA
:1013A80001553F4040403F561F2040201F573F40B7
:1013B80038403F5863140814635907087008075ADF
:0813C80061514945430000009A
:0813D000BCFAFF7F01000000E0
:0413D8000024F400F9
:0400000508000E15CC
:00000001FF
